:1000000063EF16F00000000000EF00F000000000B9
:0A0010000000000000000000F3D71C
:0E001C0002017BB102D08B9801D08B881200BC
:0E002A0002017BB102D08B9601D08B861200B2
:0E00380002017BB102D08D9601D08D861200A0
:0E00460002017BB102D0899401D0898412009E
:0E00540002017BB102D08B9C01D08B8C12007C
:0E00620002017BB102D08B9401D08B8412007E
:0E00700002017BB102D08B9A01D08B8A120064
:0E007E0002017BB102D08B9E01D08B8E12004E
:0E008C0002017BB102D08A9201D08A8212005A
:0E009A0002017BB102D08D9401D08D84120042
:0E00A80002017BB102D08F9201D08F82120034
:0E00B60002017BB102D08F9401D08F84120022
:0E00C40002017BB102D08B9801D08B88120014
:0E00D20002017BB102D08B9601D08B8612000A
:0E00E00002017BB102D08A9401D08A84120002
:0E00EE0002017BB102D08B9801D08B881200EA
:0E00FC0002017BB102D08B9601D08B861200E0
:0E010A0002017BB102D08F9001D08F801200D5
:0E01180002017BB102D08B9A01D08B8A1200BB
:0E01260002017BB102D08B9801D08B881200B1
:0E01340002017BB102D08B9801D08B881200A3
:0E01420002017BB102D08B9601D08B86120099
:0E01500002017BB102D08B9201D08B82120093
:0E015E0002017BB102D08B9A01D08B8A120075
:0E016C0002017BB102D08D9001D08D80120077
:10017A000F0121B302D00000FBD77BC21CFF120083
:0E018A00ACB202D00000FCD77BC2ADFF120069
:0E01980002017BB102D08B9001D08B8012004F
:0E01A60002017BB102D0899001D08980120045
:0E01B40002017BB102D0899801D08988120027
:0E01C20002017BB102D0899201D08982120025
:0E01D00002017BB102D08B9601D08B8612000B
:0E01DE0002017BB102D08D9201D08D82120001
:0E01EC0002017BB102D08B9801D08B881200EB
:0E01FA0002017BB102D08B9E01D08B8E1200D1
:0E02080002017BB102D08A9001D08A801200E0
:0E02160002017BB102D08B9601D08B861200C4
:0E02240002017BB102D08B9C01D08B8C1200AA
:10023200F250026EF29E0500FF6A0150FE6E0050FF
:08024200FD6E02BEF28E1200F7
:10024A0068B409D01F0E6614016E0150000A03E15A
:0A025A00010E006E01D0006A1200D0
:10026400C7B409D01F0EC514016E0150000A03E182
:0A027400010E006E01D0006A1200B6
:0A027E00000E82B8010E006E12009F
:0A028800000E82B8010E006E120095
:0A029200000E80B2010E006E120093
:0A029C00000E81B2010E006E120088
:0A02A600000E84B4010E006E120079
:0A02B000000E82BC010E006E120069
:0A02BA00000E82BE010E006E12005D
:0A02C400000E82BA010E006E120057
:0A02CE00000E81B0010E006E120058
:0A02D800000E82B2010E006E12004B
:1002E20066C177F267C178F268C179F269C17AF2C0
:1002F2000201756B766B7651120802E175518E0818
:1003020008E3AFDF005201E004D00201754B762B07
:10031200F2D70201120E765D02E18F0E755D03E3E4
:100322007B0E006E26D0C580C5A022D00101665189
:100332006711681169111BE0020177517811791177
:100342007A110EE118C2E1FF19C2E2FF050EE66E54
:1003520016C200F017C201F06BDF010E006E09D069
:10036200010E0201775F000E785B795B7A5BDCD766
:04037200006A12000B
:10037600AECF01F0ABA202D0AB98AB8801C000F0C3
:02038600120063
:0A038800000E80B4010E006E12009A
:0A039200000E80B8010E006E12008C
:0A039C00000E84B2010E006E120084
:0A03A600000E82B6010E006E120078
:0A03B000000E82B8010E006E12006C
:1003BA0066C177F267C178F268C179F269C17AF2E7
:1003CA009E96C5869EB620D00101665167116811B6
:1003DA00691119E002017751781179117A110CE14A
:1003EA0018C2E1FF19C2E2FF030EE66E16C200F060
:1003FA0017C201F019DF08D0010E0201775F000E63
:10040A00785B795B7A5BDED70201C9CF76F27551E8
:10041A00000A02E1C58A01D0C59A9E96C58866C1BE
:10042A0077F267C178F268C179F269C17AF29EB649
:10043A0020D00101665167116811691119E00201A2
:10044A007751781179117A110CE118C2E1FF19C2BA
:10045A00E2FF030EE66E16C200F017C201F0E4DEF8
:10046A0008D0010E0201775F000E785B795B7A5B38
:08047A00DED776C200F012008B
:0A048200000E82B4010E006E12009D
:0A048C00000E82B6010E006E120091
:100496005CC177F25DC178F25EC179F25FC17AF232
:1004A600A19A6686A1BA20D001015C515D115E1148
:1004B6005F1119E002017751781179117A110CE177
:1004C60010C2E1FF11C2E2FF030EE66E0EC200F09B
:1004D6000FC201F0ABDE08D0010E0201775F000EFD
:1004E600785B795B7A5BDED702016ACF76F275516B
:1004F600000A02E1668A01D0669AA19A66885CC102
:1005060077F25DC178F25EC179F25FC17AF2A1BA83
:1005160020D001015C515D115E115F1119E00201ED
:100526007751781179117A110CE110C2E1FF11C2ED
:10053600E2FF030EE66E0EC200F00FC201F076DE99
:1005460008D0010E0201775F000E785B795B7A5B5B
:08055600DED776C200F01200AE
:10055E00A19A75C26AFF5CC176F25DC177F25EC187
:10056E0078F25FC179F268A422D001015C515D116D
:10057E005E115F111BE0020176517711781179112E
:10058E000EE110C2E1FF11C2E2FF040EE66E0EC2D2
:10059E0000F00FC201F046DE010E006E3BD0010EE0
:1005AE000201765F000E775B785B795BDCD75CC10E
:1005BE0076F25DC177F25EC178F25FC179F2A1BACF
:1005CE0022D001015C515D115E115F111BE0020131
:1005DE0076517711781179110EE110C2E1FF11C237
:1005EE00E2FF040EE66E0EC200F00FC201F01ADE3C
:1005FE00010E006E0FD0010E0201765F000E775BCA
:10060E00785B795BDCD766BC02D0006A03D0668467
:06061E00020E006E120046
:1006240066C175F267C176F268C177F269C178F282
:10063400C582C5A220D001016651671168116911F4
:1006440019E0020175517611771178110CE118C285
:10065400E1FF19C2E2FF060EE66E16C200F017C2F1
:1006640001F0E5DD08D0010E0201755F000E765B36
:08067400775B785BDED7120012
:04067C00668412007E
:0A068000000E82B6010E006E12009B
:0A068A00000E84B6010E006E12008F
:100694005CC175F25DC176F25EC177F25FC178F23A
:1006A400668266A220D001015C515D115E115F116A
:1006B40019E0020175517611771178110CE110C21D
:1006C400E1FF11C2E2FF060EE66E0EC200F00FC299
:1006D40001F0ADDD08D0010E0201755F000E765BFE
:0806E400775B785BDED71200A2
:0406EC00C5841200AF
:0A06F000000E86B0010E006E12002D
:1006FA009E9675C2C9FF66C176F267C177F268C174
:10070A0078F269C179F2C7A422D001016651671152
:10071A00681169111BE0020176517711781179117C
:10072A000EE118C2E1FF19C2E2FF040EE66E16C21C
:10073A0000F017C201F078DD010E006E3BD0010E09
:10074A000201765F000E775B785B795BDCD766C166
:10075A0076F267C177F268C178F269C179F29EB61A
:10076A0022D0010166516711681169111BE002016B
:10077A0076517711781179110EE118C2E1FF19C289
:10078A00E2FF040EE66E16C200F017C201F04CDD5D
:10079A00010E006E0FD0010E0201765F000E775B2C
:1007AA00785B795BDCD7C5BC02D0006A03D0C5840C
:0607BA00020E006E1200A9
:1007C0005CC177F25DC178F25EC179F25FC17AF205
:1007D0000201756B766B7651120802E175518E0835
:1007E00008E333DD005201E004D00201754B762BA3
:1007F000F2D70201120E765D02E18F0E755D03E302
:100800007B0E006E26D0668066A022D001015C516E
:100810005D115E115F111BE00201775178117911B2
:100820007A110EE110C2E1FF11C2E2FF050EE66E81
:100830000EC200F00FC201F0FCDC010E006E09D008
:10084000010E0201775F000E785B795B7A5BDCD783
:04085000006A120028
:0A085400000E86B2010E006E1200C5
:0A085E00000E80B0010E006E1200C3
:0A086800000E82BA010E006E1200AD
:0A087200000E81B4010E006E1200AA
:0A087C00000E82B8010E006E12009B
:0A088600000EA4BA010E006E12006D
:100890001DCF01F00F0122A302D02299228901C0AD
:0408A00000F0120052
:0A08A400000E82B6010E006E120075
:0C08AE00000E0F0121B3010E006E1200BD
:0A08BA00000EACB2010E006E120039
:0A08C400000E86B4010E006E120053
:0A08CE00000E82B8010E006E120049
:0A08D800000E82B6010E006E120041
:0A08E200000E82B0010E006E12003D
:0A08EC00000E9EBA010E006E12000D
:0A08F600000E82BC010E006E12001D
:0A090000000E82B6010E006E120018
:0A090A00000E82B8010E006E12000C
:0A091400000E84B0010E006E120008
:0A091E00000E82BE010E006E1200F2
:0A092800000E82BA010E006E1200EC
:100932000B840BAEA4EF04F0010E036E026A016A8F
:0A094200006A0A360232FF0E1200AE
:0E094C00026A016A006A086A036A000E12005D
:08095A000AAE029E000E12001D
:100962000B820BAEBBEF04F00368026801680068FB
:080972000A360232FF0E1200EA
:08097A000B6A0B86FF0E120050
:100982000C6A0E6A0250D8A4DAEF04F001C002F039
:1009920000C001F0006A0E860250D8A4DAEF04F01B
:1009A20001C002F0016A0E960E880250D8B4ECEF34
:1009B20004F00E50035ED8A4D8A0F1EF04F0D89052
:1009C20002BEF6EF04F0003601360236032EE1EFE6
:1009D20004F0F1EF04F0010E0C6EB7DFF9EF04F052
:1009E200020E0C6EA5DFF9EF04F0040E0C6EB4DFFC
:0209F2001200F1
:1009F4007A0E0201436F010E446F7B0E456F020EA7
:100A0400466F900E4B6F080E4C6F000E4D6F000E2C
:100A14004E6F860E476F080E486F000E496F000E2A
:100A24004A6FAE0E2B6F080E2C6F000E2D6F000E4A
:100A34002E6F0F01218B900E226F98849892A4AA96
:0A0A440003D01DCF00F0FBD7120015
:100A4E008A0E0201436F010E446F7B0E456F020E3C
:100A5E00466F760E4B6F030E4C6F000E4D6F000EF1
:100A6E004E6FEC0E476F080E486F000E496F000E6A
:100A7E004A6FBA0E2B6F080E2C6F000E2D6F000EE4
:100A8E002E6FAC8A900EAB6E948E949C9EAA03D061
:080A9E00AECF00F0FBD71200FF
:100AA6000201736B746B6CC271F26DC272F26BC22F
:100AB60000F000360090008029C2E1FF2AC2E2FF62
:100AC60000C0E6FF27C200F028C201F019EC01F0D1
:100AD600005002017313000E7413010E6E5F000EB8
:100AE6006F5B6E516F1116E025C2E1FF26C2E2FF71
:100AF600010EE66E23C200F024C201F019EC01F0EB
:100B060071C2E1FF72C2E2FF00C0E6FF0201714B53
:100B1600722BE3D725C2E1FF26C2E2FFE66A23C2B3
:100B260000F024C201F019EC01F071C2E1FF72C2BB
:100B3600E2FF00C0E6FF02017051000A06E13BC277
:100B460000F03CC201F019EC01F002017051010AFB
:100B560006E13FC200F040C201F019EC01F073C299
:080B660000F074C201F012005E
:100B6E000CB0F9EF05F00CA29FEF06F00E6A000E26
:100B7E00026410EF06F0F00E0214D8A4DBEF05F0BD
:100B8E00023A01380F0B02260138F00B016E0038C5
:100B9E000F0B01260038F00B006E08380F0B0026E5
:100BAE000838F00B086E0E84D89002BEF4EF05F0F4
:100BBE0008360036013602360E2A02BEF4EF05F074
:100BCE0008360036013602360E2A02BEF4EF05F064
:100BDE0008360036013602360E2A0E50036495EFA3
:100BEE0006F0035E0BBC08AE9AEF06F0D880800EBE
:100BFE0008640030000E002201220222D8A09AEFD3
:100C0E0006F0023201320032034A9FEF06F09AEFED
:100C1E0006F001C002F000C001F008C000F0086A42
:100C2E00000E0E86026447EF06F0F00E0214D8A4F2
:100C3E002FEF06F0023A01380F0B02260138F00BA7
:100C4E00016E00380F0B01260038F00B006E0E847B
:100C5E00D89002BEF4EF05F00036013602360E2AA9
:100C6E0002BEF4EF05F00036013602360E2A02BE41
:100C7E00F4EF05F00036013602360E2AF4EF05F0D9
:100C8E0001C002F000C001F0006A000E0E960E8840
:100C9E00026474EF06F0F00E0214D8A45FEF06F0B3
:100CAE00023A01380F0B02260138F00B016E0E844A
:100CBE00D89002BEF4EF05F0013602360E2A02BEBF
:100CCE00F4EF05F0013602360E2A02BEF4EF05F0FF
:100CDE00013602360E2AF4EF05F001C002F0016A69
:100CEE00000E0E860264A4EF06F0F00E0214D8A4D5
:100CFE0083EF06F0023A0E84D89002BEF4EF05F0B0
:100D0E0002360E2A02BEF4EF05F002360E2A02BE9D
:100D1E00F4EF05F002360E2AF4EF05F0010E0C6E1C
:100D2E0001DEA7EF06F0020E0C6E10DEA7EF06F046
:100D3E00040E0C6E0FDEA7EF06F0080E0C6EFFDD34
:020D4E00120091
:100D50000201736B746B6CC271F26DC272F26BC282
:100D600000F00036009029C2E1FF2AC2E2FF00C075
:100D7000E6FF27C200F028C201F019EC01F0005094
:100D800002017313000E74136EC200F06FC201F003
:100D9000010E6E5F000E6F5B0050011018E029C25B
:100DA000E1FF2AC2E2FF71C2E9FF72C2EAFFEECFA1
:100DB000E6FF27C200F028C201F019EC01F0005054
:100DC00002017313000E7413714B722BDDD7705137
:100DD000000A06E13BC200F03CC201F019EC01F050
:100DE00002017051010A06E13FC200F040C201F069
:0E0DF00019EC01F073C200F074C201F01200A1
:100DFE00640E0201126F020E136F000E146F000EBE
:100E0E00156FE20E1A6F020E1B6F000E1C6F000E96
:100E1E001D6F240E536F060E546F000E556F000E8D
:100E2E00566FBA0E4F6F030E506F750E516F020E46
:100E3E00526FFA0E336F060E346F750E356F020E4B
:100E4E00366FEC0E376F060E386F000E396F000ED0
:100E5E003A6F949894968B988B9694889486C79EA6
:080E6E00C79C380EC66E12008D
:100E760002016B6B6C6B1FC200F020C201F019EC13
:100E860001F000C06BF2000E02016C6F6BC200F045
:060E96006CC201F0120025
:020E9C00120042
:100E9E0031C2E1FF32C2E2FF65C2E9FF66C2EAFF7C
:100EAE00EECFE6FF2FC200F030C201F019EC01F0D8
:040EBE00006A1200B4
:100EC20065C2F6FF66C2F7FF67C2F8FF0900F5CFF9
:100ED2001FF20900F5CF20F20900F5CF21F2090037
:100EE200F5CF22F2040E02016525F66E000E662190
:100EF200F76E000E6721F86E0900F5CF3BF209008C
:100F0200F5CF3CF20900F5CF3DF20900F5CF3EF2F4
:100F1200080E6525F66E000E6621F76E000E67213B
:100F2200F86E0900F5CF3FF20900F5CF40F2090053
:100F3200F5CF41F20900F5CF42F20C0E6525F66EAF
:100F4200000E6621F76E000E6721F86E0900F5CFDC
:100F520027F20900F5CF28F20900F5CF29F209009E
:100F6200F5CF2AF2100E6525F66E000E6621F76E99
:100F7200000E6721F86E0900F5CF23F20900F5CFC4
:100F820024F20900F5CF25F20900F5CF26F212006E
:100F920065C267F266C268F26DDF1EC26BF2670E4F
:100FA2006C6F020E6D6F020E6E6F000E6F6F706BC4
:040FB200CEDE12007D
:100FB60065C268F266C269F267C26AF20BD0A00E19
:100FC600C86E1ADF44D0280EC86E16DF40D0040E55
:100FD600006E3FD068C2F6FF69C2F7FF6AC2F8FF2B
:100FE6000900F5CF01F00900F5CF02F00900F5CFB1
:100FF60003F00900F5CF04F00450000A08E103509D
:10100600010A05E10250860A02E10150A00AD7E072
:1010160068C2F6FF69C2F7FF6AC2F8FF0900F5CF9A
:1010260001F00900F5CF02F00900F5CF03F0090041
:10103600F5CF04F00450000A08E10350060A05E162
:1010460002501A0A02E10150800ABDE0C0D7000E24
:04105600006E120016
:10105A0065C268F266C269F267C26AF20BD0A00E74
:10106A00C86EC8DE44D0280EC86EC4DE40D0040E56
:10107A00006E3FD068C2F6FF69C2F7FF6AC2F8FF86
:10108A000900F5CF01F00900F5CF02F00900F5CF0C
:10109A0003F00900F5CF04F00450000A08E10350F8
:1010AA00010A05E10250860A02E10150A00AD7E0CE
:1010BA0068C2F6FF69C2F7FF6AC2F8FF0900F5CFF6
:1010CA0001F00900F5CF02F00900F5CF03F009009D
:1010DA00F5CF04F00450000A08E10350060A05E1BE
:1010EA0002501A0A02E10150800ABDE0C0D7000E80
:0410FA00006E120072
:1010FE0065C268F266C269F267C26AF20BD0A00ED0
:10110E00C86E76DE44D0280EC86E72DE40D0040E55
:10111E00006E3FD068C2F6FF69C2F7FF6AC2F8FFE1
:10112E000900F5CF01F00900F5CF02F00900F5CF67
:10113E0003F00900F5CF04F00450000A08E1035053
:10114E00010A05E10250860A02E10150A00AD7E029
:10115E0068C2F6FF69C2F7FF6AC2F8FF0900F5CF51
:10116E0001F00900F5CF02F00900F5CF03F00900F8
:10117E00F5CF04F00450000A08E10350060A05E119
:10118E0002501A0A02E10150800ABDE0C0D7000EDB
:04119E00006E1200CD
:1011A20021D0CF0EAF6EAC9451DC6BD0670EAF6E18
:1011B200AC944CDC66D0CF0EAF6EAC8447DC61D011
:1011C200670EAF6EAC8442DC5CD0440EAF6EAC8472
:1011D2003DDC57D0220EAF6EAC8438DC52D0060E06
:1011E200006E58D00201000E006E681908E100502E
:1011F200671905E1120E661902E16551C00AD1E0D4
:10120200000E006E681908E10050671905E1250E0D
:10121200661902E16551800AC9E0000E006E681984
:1012220008E10050671905E14B0E661902E16551AC
:10123200000AC1E0000E006E681908E1005067194B
:1012420005E1960E661902E16551000AB9E0000E49
:10125200006E681908E10050671905E1E10E661990
:1012620002E16551000AB1E06851000A08E16751E4
:10127200010A05E16651C20A02E16551000AAAE0CB
:10128200AED78A0E2F6F010E306F7B0E316F020EBA
:06129200326F006A120039
:1012980027D0CF0EAF6EAC9427EC05F070D0670E58
:1012A800AF6EAC9427EC05F06AD0CF0EAF6EAC846D
:1012B80027EC05F064D0670EAF6EAC8427EC05F020
:1012C8005ED0440EAF6EAC8427EC05F058D0220EE9
:1012D800AF6EAC8427EC05F052D0060E006E58D0E5
:1012E8000201000E006E681908E10050671905E157
:1012F800120E661902E16551C00ACBE0000E006EBD
:10130800681908E10050671905E1250E661902E120
:101318006551800AC4E0000E006E681908E10050AB
:10132800671905E14B0E661902E16551000ABDE037
:10133800000E006E681908E10050671905E1960E65
:10134800661902E16551000AB6E0000E006E6819E0
:1013580008E10050671905E1E10E661902E16551DF
:10136800000AAFE06851000A08E16751010A05E187
:101378006651C20A02E16551000AA9E0AED78A0E99
:101388002F6F010E306F7B0E316F020E326F006AC5
:02139800120041
:10139A003ED00F0120870D0E1F6F040E1E6F218590
:1013AA00FAEC04F083D00F012087060E1F6F820E1D
:1013BA001E6F2185FAEC04F079D00F012087030E05
:1013CA001F6F400E1E6F2185FAEC04F06FD00F01DB
:1013DA002087010E1F6FA00E1E6F2185FAEC04F004
:1013EA0065D00F012087010E1F6F150E1E6F218514
:1013FA00FAEC04F05BD00F0120871F6B8A0E1E6F78
:10140A002185FAEC04F052D0060E006E59D0000E77
:10141A00006E0201681908E10050671905E1120E11
:10142A00661902E16551C00AB4E0000E006E68193F
:10143A0008E10050671905E1250E661902E16551B8
:10144A00800AB1E0000E006E681908E100506719C1
:10145A0005E14B0E661902E16551000AAEE0000E85
:10146A00006E681908E10050671905E1960E6619C1
:10147A0002E16551000AABE0000E006E681908E14E
:10148A000050671905E1E10E661902E16551000A8B
:10149A00A8E06851000A08E16751010A05E16651AE
:1014AA00C20A02E16551000AA6E0AED702017A0E2D
:1014BA002F6F010E306F7B0E316F020E326F006A92
:0214CA0012000E
:1014CC0027D0CF0EAF6EAC9427EC05F070D0670E22
:1014DC00AF6EAC9427EC05F06AD0CF0EAF6EAC8437
:1014EC0027EC05F064D0670EAF6EAC8427EC05F0EA
:1014FC005ED0440EAF6EAC8427EC05F058D0220EB3
:10150C00AF6EAC8427EC05F052D0060E006E58D0AE
:10151C000201000E006E681908E10050671905E120
:10152C00120E661902E16551C00ACBE0000E006E86
:10153C00681908E10050671905E1250E661902E1EA
:10154C006551800AC4E0000E006E681908E1005075
:10155C00671905E14B0E661902E16551000ABDE001
:10156C00000E006E681908E10050671905E1960E2F
:10157C00661902E16551000AB6E0000E006E6819AA
:10158C0008E10050671905E1E10E661902E16551A9
:10159C00000AAFE06851000A08E16751010A05E151
:1015AC006651C20A02E16551000AA9E0AED78A0E63
:1015BC002F6F010E306F7B0E316F020E326F006A8F
:0215CC0012000B
:1015CE0000C008F00150006E016A026A036A0B6ADD
:1015DE000C6A016A026A036A960E036E0A6A00AE0C
:1015EE00FFEF0AF0081E001E082AD8B4002A0A8E41
:1015FE0000C001F008C000F0086A026AC1EC04F0F5
:02160E001200C8
:10161000086A096A000E076203648DEF0BF002503E
:1016200006180A6E075003267E0ED8A01EEF0BF098
:10163000035ED8B092EF0BF022EF0BF0035ED8A060
:1016400097EF0BF0028E068E02C00EF001C00BF079
:1016500000C00DF000500402F4CF0CF00150050260
:10166000F4CF00F0F3CF08F00402F3500C26F4504E
:101670000822000E00220D500502F3500C26F450F3
:101680000822000E002202500402F3500826F450F3
:10169000002202500502016A000E0122F3500026CA
:1016A000F45001220D500602F3500826F450002297
:1016B000026A000E012202220B500602F35000269D
:1016C000F4500122000E02220E500602F3500126B1
:1016D000F450022202BE75EF0BF0083600360136D8
:1016E00002360306D8B497EF0BF088EF0BF0D880E2
:1016F000800E08640030000E002201220222D8A0D1
:1017000088EF0BF0023201320032034A92EF0BF005
:101710000AAE029E000E9AEF0BF0010EA6EC04F04A
:101720009AEF0BF0020EB1EC04F09AEF0BF0040EFE
:0617300099EC04F0120028
:1017360065C204F066C205F004C002F005C003F0FD
:10174600044A052A67C200F068C201F00201674B2D
:10175600682B00C0E9FF01C0EAFF02C0E1FF03C039
:10176600E2FFEECFE6FF02C0E9FF03C0EAFFEE525A
:0E17760001E0E2D765C200F066C201F0120089
:1017840065C266F23BEC07F01EC26BF2660E6C6F2C
:10179400020E6D6F010E6E6F000E6F6F010E706F93
:1017A400A8EC06F01EC26BF2670E02016C6F020E0B
:1017B4006D6F010E6E6F000E6F6F706B53EC05F062
:0617C40067C200F01200F4
:1017CA0065C266F23BEC07F01EC26BF2660E6C6FE6
:1017DA00020E6D6F010E6E6F000E6F6F010E706F4D
:1017EA00A8EC06F01EC26BF2670E02016C6F020EC5
:1017FA006D6F020E6E6F000E6F6F706B53EC05F01B
:10180A0068C269F2000E02016A6F69C201F0006AD9
:10181A0000C069F201C06AF267510012000E01129B
:0A182A0000C069F201C06AF212006A
:101834000450000A12E10550000A0FE10650000AA4
:101844000CE10750000A09E1FF0E006EFF0E016E65
:101854007F0E026EFF0E036EA8D0086A096A075055
:10186400D8B4C5EF0CF00350D8B4CAEF0CF0025052
:1018740006180A6E028E068E0E6A02C008F001C0B7
:101884000CF000C00DF004500D5E0550D8A0053CCE
:101894000C5E0650D8A0063C085E086A0C6A0D6A05
:1018A400D8A05CEF0CF0D89002320132003208323A
:1018B400010E0E6E0750035ED8A069EF0CF07E0E89
:1018C4000E240326D8B0CFEF0CF06FEF0CF07E0E91
:1018D4000E240326D8A0D4EF0CF0180E0B6E0D3690
:1018E4000C3608360036013602360E360450005ED9
:1018F4000550D8A0053C015E0650D8A0063C025E07
:1019040006340E120EA08AEF0CF00D8095EF0CF049
:10191400045000260550D8B0053C01260650D8B026
:10192400062802260D900B2E71EF0CF0BBEF0CF085
:10193400D8900036013602360E360450005E05504B
:10194400D8A0053C015E0650D8A0063C025E0634D1
:101954000E10010B0D26D8B00C2AD8B4082AD8A42E
:10196400BBEF0CF008320C320D32032AD8B4CFEF9F
:101974000CF00AAE089E0850026E0C50016E0D5019
:10198400006ED7EF0CF0010EBDEC04F0D7EF0CF0B5
:10199400020EA6EC04F0D7EF0CF0040EB1EC04F048
:0C19A400D7EF0CF0080E99EC04F01200D4
:1019B0000A6A0350D8A40A800750D8A40A820A50A1
:1019C000D8B43BEF0DF0030AD8B4F4EF0CF00AB032
:1019D000EFEF0CF006AE39EF0DF037EF0DF002AE81
:1019E00037EF0DF039EF0DF00250800B0A6E029EBA
:1019F0000650800B069E0A18D8B405EF0DF00A5069
:101A0000D8B437EF0DF039EF0DF00750035CD8B4C0
:101A10000FEF0DF0D8A02BEF0DF031EF0DF00650C9
:101A2000025CD8B419EF0DF0D8A02BEF0DF031EF18
:101A30000DF00550015CD8B423EF0DF0D8A02BEFCA
:101A40000DF031EF0DF00450005CD8B43BEF0DF019
:101A5000D8B031EF0DF00A52D8B439EF0DF037EFAE
:101A60000DF00A52D8B437EF0DF039EF0DF0D880F1
:0E1A70001200D8901200D880D8841200120004
:101A7E000D6A086A0050D8B4000C04180A6E0ABE2B
:101A8E000D1E0B6A04AE02D0041E042A00AE02D054
:101A9E00001E002A005004100A6E0ABE1FD0045009
:101AAE00085E003600340836045008260036060E4E
:101ABE000C6E00340836045000B0085E00A00826F4
:101ACE0000360C2EF6D700A008260BB015D00DAEA2
:101ADE00000C001E002A081E082A000C04AE09D0B5
:101AEE0000BE04D00050086E006AF1D7006A002ACA
:101AFE00000C001E0B2AD3D7082A0450085CD8A469
:0E1B0E00E6D7086A002A00AEE2D7FF0C1200EC
:101B1C00025006180E6E086A096A0B6A03500764B5
:101B2C0081EF0EF006500A6E068E028E03500B6E7D
:101B3C000750036E000E0B64D1EF0DF00B50075ED7
:101B4C00D8B472EF0EF0070E076440EF0EF0075E8C
:101B5C0000C008F001C000F002C001F0026A074E9C
:101B6C0072EF0EF0076415EF0EF0075E00C008F080
:101B7C0001C000F0016A074E72EF0EF00764F3EF3C
:101B8C000DF0075E00C008F0006A074E72EF0EF011
:101B9C000764DAEF0DF00AC002F005C001F004C0D2
:101BAC0000F0086A9EEF0FF0030E0764E5EF0DF0EE
:101BBC00075E08380F0B086E074E72EF0EF0D890C8
:101BCC000832074E72EF0EF0D8900832074E72EFC3
:101BDC000EF0D890083272EF0EF0030E076404EF8B
:101BEC000EF0075E08380F0B086E0038F00B082655
:101BFC0000380F0B006E074E72EF0EF0D8900032CB
:101C0C000832074E72EF0EF0D89000320832074EB1
:101C1C0072EF0EF0D8900032083272EF0EF0030E15
:101C2C0007642CEF0EF0075E08380F0B086E0038B7
:101C3C00F00B082600380F0B006E0138F00B002655
:101C4C0001380F0B016E074E72EF0EF0D890013277
:101C5C0000320832074E72EF0EF0D890013200328B
:101C6C000832074E72EF0EF0D89001320032083273
:101C7C0072EF0EF0030E07645DEF0EF0075E08388E
:101C8C000F0B086E0038F00B082600380F0B006E97
:101C9C000138F00B002601380F0B016E0238F00BE7
:101CAC00012602380F0B026E074E72EF0EF0D89021
:101CBC000232013200320832074E72EF0EF0D89029
:101CCC000232013200320832074E72EF0EF0D89019
:101CDC000232013200320832096A000E0EAE66EF93
:101CEC000FF0081E001E011E021E082A00220122EF
:101CFC00022266EF0FF00750D8A487EF0EF09EEF8C
:101D0C000FF0096A02C00AF0028E068E0750035CBF
:101D1C00076ED8B459EF0FF0070E076427EF0FF0DA
:101D2C00075E0450096E0550046E0650056E066A77
:101D3C00074E59EF0FF0070E0764FCEF0EF0075E2D
:101D4C000450096E0550046E056A074E59EF0FF0EA
:101D5C00070E0764DAEF0EF0075E0450096E046A92
:101D6C00074E59EF0FF0070E0764C1EF0EF00AC0D3
:101D7C0002F09EEF0FF0030E0764CCEF0EF0075E3F
:101D8C0009380F0B096E074E59EF0FF0D890093236
:101D9C00074E59EF0FF0D8900932074E59EF0FF05C
:101DAC00D890093259EF0FF0030E0764EBEF0EF0E9
:101DBC00075E09380F0B096E0438F00B092604383E
:101DCC000F0B046E074E59EF0FF0D8900432093206
:101DDC00074E59EF0FF0D89004320932074E59EFE5
:101DEC000FF0D8900432093259EF0FF0030E07644C
:101DFC0013EF0FF0075E09380F0B096E0438F00B68
:101E0C00092604380F0B046E0538F00B0426053830
:101E1C000F0B056E074E59EF0FF0D89005320432B8
:101E2C000932074E59EF0FF0D890053204320932BF
:101E3C00074E59EF0FF0D89005320432093259EFA2
:101E4C000FF0030E076444EF0FF0075E09380F0B19
:101E5C00096E0438F00B092604380F0B046E053894
:101E6C00F00B042605380F0B056E0638F00B052613
:101E7C0006380F0B066E074E59EF0FF0D89006324E
:101E8C00053204320932074E59EF0FF0D890063262
:101E9C00053204320932074E59EF0FF0D890063252
:101EAC00053204320932086A000E0EAE66EF0FF0EE
:101EBC00091E041E051E061E092A042205220622DE
:101ECC000950082604500022055001220650022217
:101EDC000EBE7DEF0FF0D8A08CEF0FF00232013266
:101EEC0000320832033E8CEF0FF098EF0FF0D8B0B1
:101EFC0092EF0FF0000E081E001E011E021E082A93
:101F0C000022012202220A7E92EF0FF0010E0C6ECB
:101F1C00B7EC05F0A0EF0FF0020E0C6EB7EC05F06D
:101F2C00A0EF0FF0040E0C6EB1EC04F0A0EF0FF06C
:061F3C00000E0C6E120005
:101F42002FD058C265F259C266F25AC267F25BC21A
:101F520068F2D1EC08F032D058C265F259C266F28A
:101F62005AC267F25BC268F266EC0AF027D058C226
:101F720065F259C266F25AC267F25BC268F2CDECF0
:101F820009F01CD058C265F259C266F25AC267F211
:101F92005BC268F24CEC09F011D0010E006E0ED05B
:101FA20002015751000ACDE05751010AD5E05751BD
:0E1FB200020ADDE05751100AE5E0EFD71200F9
:101FC00057C265F202DC00C05CF201C05DF25D3315
:101FD0005C335D9F5DBD5D8F5D335C335D9F5DBD3B
:101FE0005D8F000E046E000E056E000E066E8C0EE8
:101FF000076E6AC100F06BC101F06CC102F06DC1E7
:1020000003F018DC00C058F201C059F202C05AF2C5
:1020100003C05BF25CC200F05DC201F0E7EC0AF0C5
:1020200058C204F059C205F05AC206F05BC207F06C
:1020300008EC0BF0000E046E000E056E000E066E2E
:10204000810E076E1AEC0CF0000E046E000E056E89
:0E2050007A0E066E880E076E08EC0BF012007A
:10205E00090E0B6E1E0E0C6EE40E0D6E0D2EFED7BF
:0C206E000C2EFCD70B2EFAD7000012003D
:10207A001ED058C265F259C266F25AC267F27FECA4
:10208A0008F020D058C265F259C266F25AC267F205
:10209A002DEC08F017D058C265F259C266F25AC23E
:1020AA0067F2DBEC07F00ED0010E006E0BD00201D6
:1020BA005751000ADEE05751010AE4E05751020A7B
:0620CA00EAE0F2D712006B
:1020D0000201656BC2EC0BF000C05AF202015A51CA
:1020E000FB0A03E0040E006EDED00F0E656F57C2D0
:1020F00066F2C9EC07F0100E0201656F58C266F275
:10210000C9EC07F0110E0201656F59C266F2C9EC05
:1021100007F0340E0201656F060E666FC9EC07F01A
:10212000170E0201656F100E666FC9EC07F01A0EEC
:102130000201656F010E666FC9EC07F0160E020111
:10214000656FF70E666FC9EC07F0190E0201656F37
:10215000740E666FC9EC07F02B0E0201656F0A0E54
:10216000666FC9EC07F0200E0201656F050E666F01
:10217000C9EC07F002015751030A0AE1000E010100
:102180006A6F000E6B6F000E6C6F800E6D6F29D042
:1021900002015751050A0AE1000E01016A6F000EA3
:1021A0006B6F000E6C6F810E6D6F1BD0020157516B
:1021B000080A0AE1000E01016A6F000E6B6F000E43
:1021C0006C6F820E6D6F0DD0020157510C0A09E140
:1021D000000E01016A6F000E6B6F000E6C6F830EB4
:1021E0006D6F02015851080A0AE1850E01018B6FDB
:1021F000EB0E8C6F790E8D6F810E8E6F53D00201B6
:102200005851090A0AE17B0E01018B6F140E8C6F85
:102210007A0E8D6F820E8E6F45D0020158510A0AD8
:102220000AE1000E01018B6F000E8C6F7A0E8D6F2C
:10223000830E8E6F37D0020158510B0A0AE1000E4F
:1022400001018B6F000E8C6F7A0E8D6F840E8E6F76
:1022500029D0020158510C0A0AE1000E01018B6FCE
:10226000000E8C6F7A0E8D6F850E8E6F1BD0020163
:1022700058510D0A0AE1000E01018B6F000E8C6FA0
:102280007A0E8D6F860E8E6F0DD0020158510E0A98
:1022900009E1000E01018B6F000E8C6F7A0E8D6FBD
:0822A000870E8E6F006A120028
:1022A8000C0E0201656FC2EC0BF000C05BF2400E31
:1022B8000014016E0150000A07E057C2E1FF58C23E
:1022C800E2FF010EE66E06D057C2E1FF58C2E2FFF8
:1022D800020EE66E300E02015B15016E0150300AE7
:1022E80007E159C2E1FF5AC2E2FF030EE66E20D0B1
:1022F800200E5B15016E0150000A07E059C2E1FF8C
:102308005AC2E2FF020EE66E13D0100E5B15016E84
:102318000150000A07E059C2E1FF5AC2E2FF010E6C
:10232800E66E06D059C2E1FF5AC2E2FF040EE66E1D
:02233800120091
:10233A000B0E0201656FC2EC0BF000C057F2800E63
:10234A000014016E0150000A1DE0400E02015715EB
:10235A00016E0150000A03E0010E006E30D0200E1B
:10236A005715016E0150000A03E0020E006E27D0D5
:10237A00100E5715016E0150000A03E0030E006E9D
:10238A001ED01CD00201400E5715016E0150000AE2
:10239A0003E0040E006E13D0200E5715016E015093
:1023AA00000A03E0050E006E0AD0100E5715016EE2
:1023BA000150000A03E0060E006E01D0006A120006
:1023CA000201636B646B57C25FF258C260F259C272
:1023DA0061F25AC262F26251FF0A08E16151FF0AD0
:1023EA0005E16051FF0A02E15F51FF0A0DE15BC29C
:1023FA0065F25CC266F2870E676F010E686F9BEC2E
:10240A000BF0030E006EF1D1010E5D6F61AF0ED0BD
:10241A00800E6119006E00C061F25D2B5BC2E1FFA4
:10242A005CC2E2FF2D0EE66E5B4B5C2B000E006E6B
:10243A00621908E10050611905E10050601902E1D2
:10244A005F51000A0CE15BC265F25CC266F2600E83
:10245A00676F010E686F9BEC0BF0006AC6D1625180
:10246A00FF0A08E16151000A05E16051000A02E130
:10247A005F51000A0DE15BC265F25CC266F2620E50
:10248A00676F010E686F9BEC0BF05DC200F0ADD177
:10249A00000E046E000E056E000E066E7F0E076EAD
:1024AA005FC200F060C201F061C202F062C203F0D2
:1024BA00D8EC0CF0010ED8B0000E006E00521CE0F1
:1024CA005FC200F060C201F061C202F062C203F0B2
:1024DA00000E046E000E056E200E066E820E076E4A
:1024EA0008EC0BF000C05FF201C060F202C061F2BA
:1024FA0003C062F26407CCD7000E046E000E056EAC
:10250A00200E066E820E076E5FC200F060C201F0F6
:10251A0061C202F062C203F0D8EC0CF0000ED8B02F
:10252A00010E006E00521CE05FC200F060C201F0B2
:10253A0061C202F062C203F0CD0E046ECC0E056ECB
:10254A004C0E066E7B0E076E08EC0BF000C05FF2B5
:10255A0001C060F202C061F203C062F2642BCCD700
:10256A00FF0E5F15086EFF0E6015096E7F0E61156E
:10257A000A6E000E62150B6E08C004F009C005F061
:10258A000AC006F00BC007F004360490053606367A
:10259A000736000E5F15006E000E6015016E000E04
:1025AA006115026EFF0E6215036E00C05FF201C074
:1025BA0060F202C061F203C062F204505F11006E61
:1025CA0005506011016E06506111026E07506211CA
:1025DA00036E00C05FF201C060F202C061F203C084
:1025EA0062F27F0E625D006E00C05EF2010E626FE3
:1025FA0000C004F05FC200F060C201F061C202F0E4
:10260A0062C203F0045007E0003600900136023639
:10261A000336FF0FF8D700C05FF201C060F202C0B4
:10262A0061F203C062F25BC2E1FF5CC2E2FF625187
:10263A00300FE66E5B4B5C2B800E6419006E800EC9
:10264A00010A005C08E3800E060A006E800E641917
:10265A00005C01E30AD05BC2E1FF5CC2E2FF2E0E1E
:10266A00E66E5B4B5C2B010E636F060E5E6F5E516E
:10267A00000A54E0626B5FC200F060C201F061C2FE
:10268A0002F062C203F000360090013602360336C9
:10269A00003600900136023603365F51002660513B
:1026AA000122615102226251032200C05FF201C07D
:1026BA0060F202C061F203C062F25FC200F060C25F
:1026CA0001F061C202F062C203F0003600900136E6
:1026DA000236033600C05FF201C060F202C061F246
:1026EA0003C062F25BC2E1FF5CC2E2FF6251300FDB
:1026FA00E66E5B4B5C2B6351000A0EE16407645182
:10270A00000A0AE15BC2E1FF5CC2E2FF2E0EE66E3E
:10271A005B4B5C2B010E636F5E07A9D7FF0E5B252F
:10272A00E96EFF0E5C21EA6EEE50300A05E1010EF9
:10273A005B5F000E5C5BF2D7FF0E5B25E96EFF0E56
:10274A005C21EA6EEE502E0A04E1010E5B5F000E78
:10275A005C5B6451000A43E05BC2E1FF5CC2E2FFDA
:10276A00650EE66E5B4B5C2B800E6419006E800E64
:10277A00000A005C0BE25BC2E1FF5CC2E2FF2D0EC5
:10278A00E66E5B4B5C2B64510008646F64C25EF2B8
:10279A00800E090A006E800E6419005C0FE20A0EB0
:1027AA00046E5EC200F03FEC0DF05BC2E1FF5CC25A
:1027BA00E2FF0050300FE66E5B4B5C2B0A0E046E94
:1027CA005EC200F03FEC0DF008C000F05BC2E1FF12
:1027DA005CC2E2FF0050300FE66E5B4B5C2B5BC2C3
:0C27EA00E1FF5CC2E2FFE66A006A120038
:1027F60057C25AF258C25BF20D0E02015C6F0A0E06
:102806005D6F3AD05AC265F25BC266F24FEC07F0D2
:102816003ED05AC2E9FF5BC2EAFFEE520AE05AC254
:1028260065F25BC266F24FEC07F002015A4B5B2B76
:10283600F0D72DD05AC2E9FF5BC2EAFFEE520AE09A
:102846005AC265F25BC266F24FEC07F002015A4BC0
:102856005B2BF0D702015C0E656F020E666F4FECC4
:1028660007F05D0E0201656F020E666F4FEC07F012
:102876000ED0060E006E0CD002015951000AC2E0BD
:102886005951010AC6E05951020AD4E0F2D7006A4A
:0228960012002E
:102898005DC21EF25AC265F25BC266F25CC267F2A2
:1028A80061EC07F057C265F258C266F259C267F286
:0628B8004EEC07F01200D7
:1028BE00140E0201656FB60E666FC9EC07F01200BA
:1028CE00080E0201656FC2EC0BF000C057F2000E4D
:1028DE000201586F57C200F058C201F0E7EC0AF03F
:1028EE00000E046E000E056E000E066E7E0E076E56
:1028FE0008EC0BF0000E046E000E056E380E066E20
:0A290E00830E076E8EEC0DF0120030
:102918000201576B400E586F2F0E596F000E5A6FF9
:102928003DEC10F0100E0201576F800E586F250E07
:10293800596F000E5A6F5B6FA1EC0FF06E0E02011B
:10294800576F010E586F020E596F51DF090E0B6E4B
:102958001E0E0C6EE40E0D6E0D2EFED70C2EFCD73F
:082968000B2EFAD7000012004B
:102970000900F5CFE6FF0006FBE10106F9E11200D0
:10298000C60E0201576F010E586F010E596F33DFEB
:10299000020E0201576FE0EC0FF000C0D2F101C04F
:1029A000D3F102C0D4F103C0D5F100C057F201C089
:1029B00058F202C059F203C05AF2DB0E02015B6FFB
:1029C000010E5C6F02DDDB0E576F010E586F010EBA
:1029D000596F11DFD60E0201576F010E586F020EAC
:1029E000596F09DF980E0201576F010E586F010EE3
:1029F000596F01DF040E0201576FE0EC0FF000C0C9
:102A0000D2F101C0D3F102C0D4F103C0D5F100C0AE
:102A100057F201C058F202C059F203C05AF2DB0E5D
:102A200002015B6F010E5C6FD0DCDB0E576F010E95
:102A3000586F010E596FDFDE930E0201576F010EC2
:102A4000586F020E596FD7DEA40E0201576F010EA8
:102A5000586F010E596FCFDE040E0201576FE0EC84
:102A60000FF000C0D2F101C0D3F102C0D4F103C015
:102A7000D5F100C057F201C058F202C059F203C0AC
:102A80005AF2DB0E02015B6F010E5C6F9EDCDB0E07
:102A9000576F010E586F010E596FADDEC10E020166
:102AA000576F010E586F020E596FA5DEB00E02016E
:102AB000576F010E586F010E596F9DDE08DF00C081
:102AC0008FF101C090F102C091F103C092F100C0FA
:102AD00057F201C058F202C059F203C05AF2DB0E9D
:102AE0005B6F010E5C6F71DCDB0E576F010E586F70
:102AF000010E596F80DEE40E0201576F000E586F11
:102B0000020E596F78DEE80E0201576F000E586F03
:102B1000C70E596F000E5A6F54EC11F013D0C80E47
:102B20000201576F000E586F020E596F64DE12D00B
:102B3000240E0201576F010E586F020E596F5BDEB3
:102B400009D008D00001E851010AE9E0E851020A81
:102B5000EFE0F7D725D0420E0201576F010E586FF4
:102B6000020E596F48DE2AD0E90E0201576F000E9F
:102B7000586F020E596F3FDE21D0060E0201576FCB
:102B8000010E586F020E596F36DE18D0490E020141
:102B9000576F000E586F020E596F2DDE0FD00ED0FA
:102BA0000001C751010AD7E0C751020ADDE0C75151
:102BB000030AE3E0C751040AE9E0F1D79DEC11F004
:102BC00000C00DF237D0150E0201576F000E586F7E
:102BD000020E596F10DE42D02F0E0201576F000E09
:102BE000586F020E596F07DE39D0930E0201576FEE
:102BF000000E586F020E596FFEDD30D0AD0E02018F
:102C0000576F000E586F020E596FF5DD27D05F0E1B
:102C10000201576F000E586F020E596FECDD1ED087
:102C2000790E0201576F000E586F020E596FE3DDE7
:102C300015D014D002010D51010AC5E00D51020A50
:102C4000CBE00D51030AD1E00D51040AD7E00D513C
:102C5000050ADDE00D51060AE3E0EBD70201840E20
:102C6000576F010E586F020E596FC5DD290E0B6E9E
:102C7000960E0C6E7F0E0D6E0D2EFED70C2EFCD711
:062C80000B2EFAD7120032
:102C8600CC0E0201576F2E0E586F000E596F2C0E88
:102C96005A6F2F0E5B6F000E5C6F180E5D6FF9DDBD
:102CA6000BDE050E0201576F0C0E586F000E006EFC
:102CB6000A0E0010596F68EC10F02FEC10F012009D
:0E2CC600A2EC17F026DEDCDF58DEFED7FFD7CB
:102F440010EE15F0F80E006E020E016ED40EF66E41
:0E2F54002C0EF76E000EF86EB8EC14F01200A2
:102CD4002054617020737461747573203A205820F5
:0A2CE4006E65676174697665200073
:102CEE002054617020737461747573203A205920DA
:0A2CFE006E65676174697665200059
:102D0800205859206F7269656E74203A20555052C8
:062D180049474854200069
:102D1E002054617020737461747573203A205920A9
:0A2D2E00706F736974697665200008
:102D38002054617020737461747573203A205A208E
:0A2D4800706F7369746976652000EE
:102D52002054617020737461747573203A205A2074
:0A2D62006E656761746976652000F4
:102D6C002054617020737461747573203A2058205C
:0A2D7C00706F7369746976652000BA
:012D8600004C
:102D8700205A206F7269656E74203A20555057415A
:0C2D97005244206C6F6F6B696E67200067
:042DA30020432000A9
:012DA700002B
:102DA800205859206F7269656E74203A204C414E44
:0D2DB800445343415045204C4546542000F3
:102DC500205859206F7269656E74203A204C414E27
:0E2DD500445343415045205249474854200082
:102DE300205A206F7269656E74203A20444F574E03
:0E2DF30057415244206C6F6F6B696E67200071
:102E0100205859206F7269656E74203A20555053CD
:0A2E110049444520444F574E20006D
:042E1B0000000000B3
:022E1F00300081
:042E2100494E4600D0
:042E250000000000A9
:042E29000000008025
:102E2D00202D2D2D2053797374656D20696E697475
:062E3D00202D2D2D2000C8
:032E43002020004C
:042E46004E614E008B
:042E4A0085EB79811A
:042E4E000000000080
:052E5200206D67200067
:0C2E570020592061786973203A20200087
:0C2E6300205A2061786973203A2020007A
:102E6F002054656D7065726174757265203A20200B
:012E7F000052
:052E8000206D67200039
:0C2E850020582061786973203A2020005A
:042E9100000000003D
:052E9500206D67200024
:102E9A000000000000000000000000000000000028
:102EAA000000000000000000000000000000000018
:102EBA000000000000000000000000000000000008
:022ECA00000006
:102ECC00A6017B0298017B026C017B0242017B0212
:102EDC0034017B025E017B0250017B0208027B0203
:102EEC00FA017B0224027B0216027B02EC017B02BC
:102EFC005E080000E208000014090000D808000079
:102F0C00CE08000028090000D8020000CE02000004
:102F1C001E090000F6080000A4080000880200004A
:102F2C00E2020000EC06000024060000FA0675021E
:042F3C00BA0375025D
:042F4000A086010066
:020000040030CA
:0E00000015137F7CF98B91FFFFC0FFE0FF40DE
:00000001FF
